:100000005EC078C077C0F2C375C074C073C072C0E0
:1000100071C0ACCD6FC06EC06DC06CC06BC06AC02B
:1000200069C068C067C026002600AE004A0D2E00D9
:100030002E0026002B0D360036002E00FC0C3E0054
:100040003E00AE009C0C460046003E00330C4E00C5
:100050004E004600040C560056004E00AF0B5E00EA
:100060005E00AE007A0B660066005E00630B6E00F9
:100070006E0066004C0B760076006E00350B7E003D
:100080007E0076000A0B860086007E00D40A8E0071
:100090008E0086008B0A960096008E00400A9E0015
:1000A0009E009600E209A600A6009E00B509B600D3
:1000B000B600B60075090000000000000000112421
:1000C0001FBECFE5D4E0DEBFCDBF10E0A0E6B0E0BC
:1000D000E0EEFDE102C005900D92AC36B107D9F714
:1000E00021E0ACE6B0E001C01D92A331B207E1F718
:1000F0000DD774CE85CFCF93C82F5EDD8EEE62DD37
:1001000084EF60DDCC2311F084EF01C08EE25ADD74
:10011000CF915FCDCF92DF92EF92FF920F931F931B
:10012000CF93DF93C82F062FF42E152F45DD8EEECB
:1001300049DD8C2F47DD4DDD3FDD8FEE43DDCF2DDB
:10014000D12F10E0E12CF12C680181E0C81AD10810
:10015000E016F10669F0CE14DF0411F480E001C06E
:1001600081E03ADD88838FEFE81AF80A2196F0CF14
:10017000DF91CF911F910F91FF90EF90DF90CF9083
:1001800028CDCF92DF92EF92FF920F931F93CF93E0
:10019000DF9300D0CDB7DEB71A821982AE014F5F70
:1001A0005F4F62E086EFB6DF298130E0322F2227F1
:1001B0008A81280F311DA901330F660B770B8091BF
:1001C000A1009091A2009A01AB01281B390B4109B3
:1001D0005109A091A300B091A400B7DD6B017C018F
:1001E0009FE0F594E794D794C7949A95D1F7C0927D
:1001F000C900D092CA00E092CB00F092CC0060918E
:10020000BF007091C000CB01770FAA0BBB0BBC01E4
:10021000CD012BE0660F771F881F991F2A95D1F714
:100220002091B3003091B4008901330F220B330BBE
:10023000A90198012C0D3D1D4E1D5F1D6ADD209307
:10024000AB003093AC004093AD005093AE00D701AB
:10025000C601820F931FA41FB51F8093C100909306
:10026000C200A093C300B093C4000896A11DB11DA5
:10027000BC01CD0134E095958795779567953A95C2
:10028000D1F70F900F90DF91CF911F910F91FF90B9
:10029000EF90DF90CF900895CF93DF9300D01F921F
:1002A000CDB7DEB719821A821B82AE014F5F5F4F56
:1002B00063E086EF2FDF60E070E0CB010F900F90DE
:1002C0000F90DF91CF910895CF93DF93EB01909141
:1002D0006C00913099F038F0923029F510926C0052
:1002E00050DFDADF1CC080E006DF81E080936C0025
:1002F000188219821A821B8285E016C0811104C0FF
:1003000010926C003EDF0BC081E0F5DE82E080934E
:100310006C00188219821A821B828AE105C06883E8
:1003200079838A839B8380E0DF91CF910895CF9377
:10033000DF93CDB7DEB766970FB6F894DEBF0FBE7A
:10034000CDBFAE014F5F5F4F86E1FA0111928A95F2
:10035000E9F766E18AEADEDE89819A8198278927B2
:10036000982790939E0080939D008B819C81982775
:10037000892798279093A6008093A5008D819E8160
:100380009827892798279093D6008093D5008F814E
:1003900098859827892798279093B6008093B50071
:1003A00089859A859827892798279093A400809318
:1003B000A3008B859C859827892798279093A20076
:1003C0008093A1008D859E859827892798279093F3
:1003D000A00080939F008F85988998278927982768
:1003E000909396008093950089899A899827892708
:1003F000982790939C0080939B008B899C899827D9
:10040000892798279093C0008093BF008D899E898B
:100410009827892798279093B4008093B300669615
:100420000FB6F894DEBF0FBECDBFDF91CF91089518
:100430008DDB20917200309173008217930709F4CD
:100440005EC093B39E70809171009E3099F18931A6
:1004500018F48F5F8093710080917100893109F0E9
:1004600049C083B38E708093700020916E003091EC
:100470006F00243F314050F420916E0030916F00A6
:100480002F5F3F4F30936F0020936E0020916E00DE
:1004900030916F00233F314069F591E090936D00FA
:1004A0008A3079F18C3021F0863021F583E008958F
:1004B00084E008958823F1F08150809371001092B8
:1004C0006F0010926E00811115C080916D00813017
:1004D00019F410926D000EC0809170008A3099F06E
:1004E0008C3021F0863021F480E0089581E0089579
:1004F000109270002BDB909373008093720086E063
:10050000089585E0089582E0089520DB209175002C
:1005100030917600821B930B0397A0F117DB909329
:10052000760080937500809174008F5F80937400D3
:10053000959A80917400853108F0959880917400A7
:10054000893208F0959A809174008D3308F095985F
:1005500080917400813508F0959A809174008536F9
:1005600008F0959880917400893708F0959A8091E9
:1005700074008D3808F09598809174008F3F11F4C5
:10058000109274000895959880E008950F931F933A
:10059000CF93DF9383E190E0FCDB8433924109F455
:1005A00043C088B3807F88BB82B3807F82BBC0E0BA
:1005B000D0E067E0CE01F2DB6EE1CE010496EEDB27
:1005C00060E0CE010896EADB219680E0C430D807CF
:1005D00081F760E08CE090E0E1DB60E08DE090E0AE
:1005E000DDDB60E08EE090E0D9DB61E08FE090E061
:1005F000D5DB61E080E190E0D1DB61E081E190E07A
:10060000CDDB60E082E190E0C9DB60E070E085E195
:1006100090E0D1DB60E070E082E390E0CCDB64E36B
:1006200072E183E190E0C7DB00E010E0C7EDD0E0CD
:10063000C801A7DB8883C8010496A3DB8983C801AE
:1006400008969FDB8A830F5F1F4F239620E0C33EEF
:10065000D20771F78CE090E094DB809301018DE08C
:1006600090E08FDB809300018EE090E08ADB809346
:1006700003018FE090E085DB8093F70080E190E05C
:1006800080DB8093F80081E190E07BDB8093F900D0
:1006900082E190E076DB8093040185E190E079DBF4
:1006A0009093F1008093F000DF91CF911F910F9113
:1006B0000895AF92BF92DF92EF92FF920F931F9334
:1006C000CF93DF9388B3807F88BB82B3807F82BB68
:1006D000C7EDD0E000E010E083EEA82E80E0B82E59
:1006E000F880C8014EDBF81619F06F2DC80156DBF3
:1006F000D980780184E0E80EF11CC70142DBD816EE
:1007000019F06D2DC7014ADBDA80780188E0E80E28
:10071000F11CC70136DBD81619F06D2DC7013EDB81
:1007200023960F5F1F4FAC16BD06D1F6C091010195
:100730008CE090E026DBC81721F06C2F8CE090E075
:100740002DDBC09100018DE090E01BDBC81721F08C
:100750006C2F8DE090E022DBC09103018EE090E0F1
:1007600010DBC81721F06C2F8EE090E017DBC091F2
:10077000F7008FE090E005DBC81721F06C2F8FE0C9
:1007800090E00CDBC091F80080E190E0FADAC81745
:1007900021F06C2F80E190E001DBC091F90081E154
:1007A00090E0EFDAC81721F06C2F81E190E0F6DAE3
:1007B000C091040182E190E0E4DAC81769F06C2F7F
:1007C00082E190E0DF91CF911F910F91FF90EF9028
:1007D000DF90BF90AF90E2CADF91CF911F910F9150
:1007E000FF90EF90DF90BF90AF9008951F920F920F
:1007F0000FB60F9211242F938F939F93AF93BF93B4
:10080000EF93FF9388B3807F88BB8FEC97E00197CD
:10081000F1F700C0000082B3807F82BB9698809180
:1008200079008F5F80937900823321F481E0809397
:10083000780006C0843621F4109278001092790076
:100840008091770090E0FC01EE0FFF1FDF01A80F01
:10085000B91FAD51BF4F11962C91222321F0209149
:100860007800222399F18E0F9F1FFC01ED51FF4F5D
:1008700090819A3059F182B3892B82BB28B381E0F1
:1008800090E00090770002C0880F991F0A94E2F769
:10089000822B88BB9091F30080917700992329F0F7
:1008A0009091EF00981312C010C090E0FC01EE0F81
:1008B000FF1F8E0F9F1FFC01E952FF4F828188238B
:1008C00029F080910501811101C0969A80917700ED
:1008D0008F5F843019F08093770002C01092770008
:1008E000FF91EF91BF91AF919F918F912F910F90B9
:1008F0000FBE0F901F90189585B58F6085BD8CE356
:1009000083BD89B7806889BF0895CF92DF92EF9247
:10091000FF920F931F93CF93DF93FB012CE330E003
:10092000B901AED96B01AC016FEF649FC001659F47
:10093000900D1124B901A4D97B0120917C00022FD4
:1009400010E0CFEFD0E0AE01461B570B409FC00137
:10095000419F900D509F900D1124BE01A5D9462FA7
:10096000E09EC001E19E900DF09E900D1124BE010D
:100970009BD9C62F362FC60166E070E081D983303F
:10098000910599F040F48130910561F00297A9F446
:100990008C2F322F0CC08430910559F0059769F4E3
:1009A000842F09C0322F242F08C0822F342F20E03B
:1009B00005C0822F2C2F30E001C080E030832183DE
:1009C0008283DF91CF911F910F91FF90EF90DF9085
:1009D000CF900895EF92FF920F931F93CF93DF93E1
:1009E000CDB7DEB72C970FB6F894DEBF0FBECDBFE4
:1009F0008091F700823069F0833081F1813009F015
:100A000070C0F8941CE080E00AD91150E1F77894A6
:100A100068C0BE016F5F7F4F8091F0009091F10040
:100A200074DFF8941CE08981FAD88A81F8D88B8128
:100A3000F6D81150C1F778948091F0009091F100B0
:100A400001969093F1008093F0008836914009F070
:100A500048C01092F1001092F00043C0BE016F5FD9
:100A60007F4F8091F0009091F1004FDF8091F00076
:100A70009091F100BE016C5F7F4F865A9F4F45DF1A
:100A80008091F0009091F100BE01695F7F4F8C541E
:100A90009F4F3BDF8091F0009091F100BE01665FB7
:100AA0007F4F825F9E4F31DFF8948E010F5F1F4FA3
:100AB0007E018DE0E80EF11CF80181918F01AFD825
:100AC0000E151F05C9F778948091F0009091F10000
:100AD00001969093F1008093F0008836914009F4DC
:100AE000B8CF2C960FB6F894DEBF0FBECDBFDF9106
:100AF000CF911F910F91FF90EF90089527D82091EB
:100B00007A0030917B00821B930B20917D00309105
:100B10007E008217930730F019D890937B00809362
:100B20007A0058CF08958091F800833091F038F41E
:100B3000813061F08230B1F483E590E00FC0843001
:100B400059F0853079F485E090E008C08CE190E0C0
:100B500005C087EA90E002C083E896E090937E00AB
:100B600080937D008091F900823059F020F481302B
:100B700069F48FEF09C0833031F0843039F488E1B3
:100B800003C080E801C083E380937C008091F7007C
:100B9000813019F41092F60003C081E08093F600D2
:100BA00019CF1092F6006091F0007091F10085E18C
:100BB00090E001C981E08093F60060E070E085E19B
:100BC00090E0F9C820E0863B920771F0009761F051
:100BD00090936100809360000696FC01859194914A
:100BE000009711F0FC010994089584B780931301D4
:100BF00014BE0FB6F894A89581B5886181BD11BC6B
:100C00000FBE089580E07BD78093FA0081E077D70C
:100C10008093FC0082E073D7982F92959F708F701D
:100C20002AE0929F800D11248093FB008091FC00AC
:100C3000982F92959F708F704AE0949F800D112499
:100C40008093FC0080918200882339F08091FA0023
:100C5000893519F498DC809382008091FA0088230A
:100C600029F090910A0191111BC049C02091FB000D
:100C70003091FC0090918200E7EDF0E0428141303C
:100C800039F44081421304C04181431301C091E013
:100C9000339640E0E33EF40789F790938200E1CF7A
:100CA000853269F510920A0180910F01909110012F
:100CB000A0911101B091120180589649A849B1093B
:100CC00080930F0190931001A0931101B093120132
:100CD00080910401181614F486E203C0882319F0E9
:100CE00084E28093FA006091FA00862F82958F70DB
:100CF0006F709AE0899F600D112480E0E7D6909193
:100D000000018091FA00992319F19BEF980F9B3015
:100D1000F8F481E08093050184E0F1D68093FE0031
:100D200085E0EDD68093FD00A89A9091FE00292FD2
:100D300022952F702093E3009F709093E600982FE8
:100D400092959F709093E9008F708093EC000895C6
:100D500090910101992369F09BEE980F903448F42B
:100D600081E08093830010920E0166E071E080E0E4
:100D70000FC0909102019923A1F09BEB980F9B303B
:100D800080F481E08093830080930E0166E071E03F
:100D90009BDA80938600DAD6909388008093870050
:100DA00008951092050190910301992339F09091D3
:100DB000FB009C3018F09C509093FB00811106C002
:100DC0008091FC0065E043D7992321F08091850054
:100DD0008823D9F010928500B9D690938A00809329
:100DE000890081E0809384008091FB002AE0622FDB
:100DF0002ED78093E5009093E8008091FC0027D7E0
:100E00008093EB009093EE0010C08091FB002AE0ED
:100E1000622F1DD78093E3009093E6008091FC0041
:100E200016D78093E9009093EC0095B381E0892771
:100E300085BB08958F929F92AF92BF92CF92DF921F
:100E4000EF92FF92CF93DF934B015C0181E080939F
:100E50000501A89AC3EED0E0C501B40124E630E054
:100E600040E050E034D728832AE0C22ED12CE12C78
:100E7000F12CA70196012BD72B83C501B401A70143
:100E8000960125D76E838AE08987DF91CF91FF9005
:100E9000EF90DF90CF90BF90AF909F908F9008958C
:100EA0008F929F92AF92BF92CF92DF92EF92FF927A
:100EB000CF93DF934B015C0181E080930501A898FB
:100EC000C3EED0E08AE08883C501B40124E630E0B7
:100ED00040E050E0FCD62B832AE0C22ED12CE12C3E
:100EE000F12CA7019601F3D62E83C501B401A70109
:100EF0009601EDD66987DF91CF91FF90EF90DF905B
:100F0000CF90BF90AF909F908F900895CF93DF9335
:100F1000CDB7DEB72C970FB6F894DEBF0FBECDBFAE
:100F200064DE8CD687B38F6087BBA09A81B38F664F
:100F300081BB85B38E6085BBC59A31D6DDDC38D6E2
:100F4000EBD5F5D978948091130183FD27C01C86D9
:100F50001B8682E08093F70085E08093F80081E0B3
:100F60008093F900E0DD10E0F1D588309740F8F487
:100F70001093EC001093E9001093E6001093E30047
:100F8000BDDDE4D52B853C85821B930B843B91050D
:100F900058F3DCD59C878B871F5FE6CF82E390E018
:100FA000F8D6BC016F5F7F4F82E390E004D7EEDAA2
:100FB000CDD589309740E0F38091F0009091F10019
:100FC000892B21F0B0DD1092F60001C0ACDD81E08C
:100FD000809385008EEA90E0F5DD9FE088E10FB612
:100FE000F894A89581BD0FBE91BD01E0FF24FA944D
:100FF000A895B59B25C080918100811121C00093E7
:10100000810020910C0130910D0180910F01909190
:101010001001A0911101B0911201820F931FA11D27
:10102000B11D80930F0190931001A0931101B09313
:10103000120180389649A849B10510F000930A01C1
:10104000B5990FC080918100882359F010928100DA
:101050008091F400811105C080918400811101C04C
:10106000D1DD80910B01882369F070D520918B0030
:1010700030918C00821B930B8938934118F08EEAD3
:1010800090E0A0DD8091F600811138DD8091820032
:1010900081113BDA80918400882309F44BC08AE0F7
:1010A000E2E6F0E0DE01119601900D928A95E1F7FB
:1010B0008091800090E0FC01EE0FFF1F8E0F9F1FBC
:1010C000FC01ED51FF4F80917F00A1E0B0E0AC0F3B
:1010D000BD1FA80FB11D8C91808338D52091890048
:1010E00030918A00821B930BC39720F12FD59093E8
:1010F0008A008093890080917F008F5F80937F00BA
:101100008A30C1F480918000E82FF0E09F01220F27
:10111000331FE20FF31FED51FF4F928190838F5FDA
:101120008093800010927F00843021F41092800020
:101130001092840080918300882379F107D5409133
:1011400087005091880020918600841B950B30E029
:101150002817390710F566E071E080910E01B4D8C8
:101160008093860080918600811112C010928300C6
:1011700020910E0160910601709107018091080194
:1011800090910901211102C055DE07C089DE05C01A
:10119000DDD490938800809387004AD9182F8091DE
:1011A0008200882339F0163009F422CFECD98093DD
:1011B00082001ECF163009F41BCF00930B01C6D45A
:1011C00090938C0080938B00123009F44FC028F468
:1011D000112359F0113099F10BCF143009F43BC0B1
:1011E00018F1153009F46BC003CF0093F50080911E
:1011F000F400882341F0E0916000F09161003296A4
:1012000085919491DFDC8091F4008111F1CE809181
:10121000F700813009F4ECCE8091F600813011F4B2
:10122000C0DCE6CEC7DCE4CE1092F5008091F4007D
:101230008111DECE1092840086E390E04AC0F092E5
:10124000F5008091F400882309F4D2CEE09160008B
:10125000F091610031C01092F5008091F40081118D
:10126000C7CE1092840086E590E033C01092F5005E
:101270008091F400882309F4BBCE823079F4809108
:10128000EF0090E0FC01EE0FFF1F8E0F9F1FFC018F
:10129000E952FF4F828181110AC006C0813039F4C2
:1012A0008091F700813019F48EEA90E012C0E0914D
:1012B0006000F09161003496859194910AC010927B
:1012C000F5008091F400811193CE1092840086EA9B
:1012D00090E078DC8DCEFC018081861714F4408389
:1012E000089548170CF4608308958091F2008823D4
:1012F00081F06AE087E0EAD360E080E0E7D3109213
:10130000F20010920F011092100110921101109230
:1013100012011092ED001092EA001092E700109274
:10132000E40010920B011092F30010920501A091BD
:1013300004010A2E000CBB0B20E836E948E950E016
:101340000ED520E831E541E050E0E3D4C90137FF94
:1013500004C088279927821B930B90930D018093DB
:101360000C011092F400A5D94DCC83E08093F400D9
:1013700081E0809305019091F500992329F09091E7
:10138000030189278093030182E0B9D38093FB0096
:10139000A89881E08093E7008093E4009091030196
:1013A000911105C082E08093E30084E003C0809344
:1013B000E30082E08093E6008AE08093EC00809373
:1013C000E900089582E09BD38093FB0081E097D3EE
:1013D0008093FC008091FB00982F92959F708F70F6
:1013E0002AE0929F800D11248093FB008091F500EC
:1013F0008823B1F081E08093F20060E880E066D35A
:101400009091FB008091F500890F8093FB0047E1EC
:1014100060E08BEF90E05FDF6091FB0082E056D3ED
:10142000A89A80910301811106C081E08093E700B2
:101430008093E40012C08091FB008C3048F08C5007
:101440008093FB001092E40081E08093E70005C0E8
:1014500081E08093E4001092E7008091FB006AE055
:10146000F6D38093E3009093E6008091FC00982FE0
:1014700092959F709093E9008F708093EC0008958F
:1014800081E03DD3982F92959F708F702AE0929FB4
:10149000800D11248093FC008091F5008823B1F029
:1014A00081E08093F20060E880E010D39091FC002E
:1014B0008091F500890F8093FC004BE360E08CEF96
:1014C00090E009DF6091FC0081E000D3809103018E
:1014D000882339F08091FB008C3018F08C50809379
:1014E000FB001092E7001092E40081E08093ED0091
:1014F0008093EA008091FB002AE0622FA8D38093BA
:10150000E3009093E6008091FC00A1D38093E90072
:101510009093EC0008958091F200882329F060E018
:1015200080E0D4D21092F20084E0E9D28093FE00F1
:1015300085E0E5D28093FD008091FE00982F929582
:101540009F708F702AE0929F800D11248093FE007F
:101550009091F500992361F0890F8093FE004FE18F
:1015600061E08EEF90E0B7DE6091FE0084E0AED2E5
:1015700081E08093E7008093E4001092ED001092E8
:10158000EA008091FE006AE062D38093E3009093CA
:10159000E6008091FD00982F92959F709093E9004E
:1015A0008F708093EC00089585E0A9D2982F9295D2
:1015B0009F708F702AE0929F800D11248093FD0010
:1015C0009091F500992361F0890F8093FD004CE024
:1015D00061E08DEF90E07FDE6091FD0085E076D2E6
:1015E0001092E7001092E40081E08093ED00809378
:1015F000EA008091FE002AE0622F29D38093E30065
:101600009093E6008091FD0022D38093E9009093AF
:10161000EC00089586E073D2982F92959F708F709A
:101620002AE0929F800D11248093FF009091F50095
:10163000992361F0890F8093FF0043E660E08FEF0C
:1016400090E049DE6091FF0086E040D2A89882E0F9
:101650008093E3001092E6008091FF006AE0F7D2E9
:101660008093E9009093EC0008958091F500882321
:1016700031F09091000181E089278093000181E0A1
:101680008093E3008AE08093E6008093E9008091F4
:1016900000018093EC0008958091F500882331F0DB
:1016A0009091010181E089278093010182E080937C
:1016B000E3008AE08093E6008093E90080910101D5
:1016C0008093EC0008958091F500882331F090918B
:1016D000010181E089278093010183E08093E30089
:1016E0008AE08093E6008093E90080910201809374
:1016F000EC0008958091F500882351F09091040149
:10170000890F8093040143E66DE984E091E0E3DD15
:101710002091040127FF02C0A89A01C0A89884E084
:101720008093E3006AE06093E600822F9CD2082E4B
:10173000000C990B97FF03C09195819591098093B7
:10174000E900822F6AE08FD2892F990F990B97FFBA
:1017500003C09195819591098093EC000895A89A12
:1017600083E08093F40081E08093F3008091F500A2
:10177000882351F09091EF00890F8093EF0043E0B0
:1017800060E08FEE90E0A7DD809103012091EF00F3
:101790008823B9F0822F90E0FC01EE0FFF1F8E0F1F
:1017A0009F1FFC01E952FF4F80818C3050F090E088
:1017B0000C976AE070E078D26093E3008093E600D3
:1017C00011C0822F90E0FC01EE0FFF1F8E0F9F1FB4
:1017D000FC01E952FF4F80816AE039D28093E30037
:1017E0009093E600822F90E0FC01EE0FFF1F8E0F1A
:1017F0009F1FFC01E952FF4F81816AE028D280934C
:10180000E9009093EC000895A89882E08093F4009A
:101810001092F30091E0909305012091F5008091E2
:10182000EF00222361F0E82FF0E09F01220F331F29
:10183000E20FF31FE952FF4F2281922792839AE031
:101840009093E3009093E6009093E90090E0FC0110
:10185000EE0FFF1F8E0F9F1FFC01E952FF4F828189
:101860008093EC000895A89A83E08093F40020917F
:10187000F500222389F08091EF0090E0AC01440F45
:10188000551F840F951F89529F4FFC013081230FF4
:10189000208347E160E01FDD809103012091EF008C
:1018A000811111C081E08093E7008093E400822FD2
:1018B00090E0FC01EE0FFF1F8E0F9F1FFC01E9520D
:1018C000FF4F808121C0822F90E0FC01EE0FFF1FAF
:1018D0008E0F9F1FFC01E952FF4F80818C3078F002
:1018E0001092E40091E09093E70090E00C976AE09A
:1018F00070E0DAD16093E3008093E6000BC091E0E2
:101900009093E4001092E7006AE0A1D18093E30095
:101910009093E600822F90E0FC01EE0FFF1F8E0FE8
:101920009F1FFC01E952FF4F81816AE090D18093B3
:10193000E9009093EC0008952091F500222399F09E
:101940008091EF0090E0AC01440F551F840F951F6C
:10195000FC01E952FF4F3181230F21834BE360E00B
:1019600088529F4FB8DC1092E7001092E40081E0AB
:101970008093ED008093EA00809103012091EF00B5
:101980008823B9F0822F90E0FC01EE0FFF1F8E0F2D
:101990009F1FFC01E952FF4F80818C3050F090E096
:1019A0000C976AE070E080D16093E3008093E600DA
:1019B00011C0822F90E0FC01EE0FFF1F8E0F9F1FC2
:1019C000FC01E952FF4F80816AE041D18093E3003E
:1019D0009093E600822F90E0FC01EE0FFF1F8E0F28
:1019E0009F1FFC01E952FF4F81816AE030D1809353
:1019F000E9009093EC00089581E08093F4008093D7
:101A00000501A8988091F5008823B1F08091F70036
:101A1000813029F08091F600811101C0CBD89091DE
:101A2000F7008091F500890F8093F70043E061E0B3
:101A300087EF90E050DC77D881E08093ED008093D1
:101A4000E3008AE08093E6008093E9008091F7004C
:101A50008093EC00089583E08093F4008091F5007A
:101A6000882359F09091F800890F8093F80044E0A2
:101A700061E088EF90E02FDC56D882E08093E300AD
:101A80008AE08093E6008093E9008091F8008093DB
:101A9000EC0008958091F500882359F09091F900A9
:101AA000890F8093F90044E061E089EF90E013DC56
:101AB0003AD883E08093E3008AE08093E600809345
:101AC000E9008091F9008093EC000895CF93DF93B3
:101AD000D82FC62F71D080ED75D08D2F73D0CF3F0A
:101AE00059F08C2F6AE0B3D020E1829F900D112431
:101AF000892FDF91CF9166C0DF91CF910895CF9369
:101B00006FEFE4DF59D081ED5DD080E065D0C82F64
:101B100060D08C2FCF9108956AE087E0D7DF80E016
:101B2000EEDF87FF12C06CE082E0D0DF6EE181E083
:101B3000CDDF60E080E0CADF6CE085E0C7DF6FE109
:101B400084E0C4DF66E186E0C1CF08958FB7F894E2
:101B500020918F003091900030938E0020938D0063
:101B60008FBF80918D0090918E0008951F920F92EB
:101B70000FB60F9211248F939F9380918F009091B5
:101B8000900001969093900080938F0085E082BF33
:101B90009F918F910F900FBE0F901F90189583B754
:101BA000836083BF85E082BF89B7816089BF089564
:101BB00088E480B911B8089584EA86BF06B607FEA6
:101BC000FDCF089583B984E886BF06B607FEFDCF32
:101BD000089584E986BF0895882331F084EC86BF98
:101BE00006B607FEFDCF05C084E886BF06B607FE31
:101BF000FDCF83B10895979A000000000000000017
:101C000097980895979A00000000000000000000D7
:101C10000000000000000000000097980895CF9396
:101C2000DF93D82FC8E0D7FF02C0ECDF01C0E3DFAD
:101C3000DD0FC150C1F7DF91CF910895CF938F9AF7
:101C4000CCE080E0ECDFC150E1F7CF910895991B23
:101C500079E004C0991F961708F0961B881F7A95A3
:101C6000C9F78095089587FB082E062687FD819584
:101C700067FD6195ECDF0EF4919507FC8195089561
:101C8000AA1BBB1B51E107C0AA1FBB1FA617B707A2
:101C900010F0A61BB70B881F991F5A95A9F78095BE
:101CA0009095BC01CD01089597FB072E16F4009482
:101CB00006D077FD08D0E4DF07FC05D03EF4909510
:101CC00081959F4F0895709561957F4F0895A1E28A
:101CD0001A2EAA1BBB1BFD010DC0AA1FBB1FEE1FA6
:101CE000FF1FA217B307E407F50720F0A21BB30BF1
:101CF000E40BF50B661F771F881F991F1A9469F76D
:101D000060957095809590959B01AC01BD01CF01C8
:101D10000895052E97FB16F400940FD057FD05D0BB
:101D2000D6DF07FC02D046F408C0509540953095A8
:101D300021953F4F4F4F5F4F089590958095709537
:101D400061957F4F8F4F9F4F08950FD0A59F900DA6
:101D5000B49F900DA49F800D911D11240895B7FF8D
:101D6000F4CFF3DF821B930B0895A29FB001B39FC2
:101D7000C001A39F01D0B29F700D811D1124911D40
:101D80000895E199FECF9FBB8EBBE09A99278DB352
:101D90000895A8E1B0E042E050E012C0262FE1999A
:101DA000FECF9FBB8EBB2DBB0FB6F894E29AE19A93
:101DB0000FBE01960895F2DF272FF1CFDC01CB0192
:101DC000FC01E199FECF06C0FFBBEEBBE09A319665
:101DD0000DB20D9241505040B8F70895F894FFCFDE
:101DE000B60003080904000507020601FFFFFFFF14
:101DF000FFFFFFFFFFFFFFFFFFFFFFFFFFFFFFFFF3
:101E0000FFFFFFFFFFFFFFFFFFFFFFFFFFFFFFFFE2
:101E1000FFFFFFFFFFFFFFFFFFFFFFFFFFFFFFFFD2
:101E2000FFFFFFFFFFFFFFFFFFFFFFFFFFFFFFFFC2
:00000001FF
