:100000005AC074C073C0EEC271C070C06FC06EC001
:100010006DC05FCC6BC06AC069C068C067C066C095
:1000200065C064C063C026002600A600FE0B2E003B
:100030002E002600DF0B360036002E00B00B3E00EF
:100040003E00A600500B460046003E00E70A4E0068
:100050004E004600B80A560056004E00630A5E0085
:100060005E00A6002E0A660066005E00170A6E009B
:100070006E006600000A760076006E00D5097E00EC
:100080007E0076009F09860086007E0056098E005D
:100090008E0086000B09960096008E00AD089E002B
:1000A0009E0096008008AE00AE00AE004008000042
:1000B00000000000000011241FBECFE5D4E0DEBF29
:1000C000CDBF10E0A0E6B0E0E6E3FBE102C00590A2
:1000D0000D92AC36B107D9F720E0ACE6B0E001C034
:1000E0001D92A93CB207E1F7FDD523CD89CFE1DB15
:1000F00020917100309172008217930709F45EC05D
:1001000093B39E70809170009E3099F1893118F4FC
:100110008F5F8093700080917000893109F049C031
:1001200083B38E7080936F0020916D0030916E00CC
:10013000243F314050F420916D0030916E002F5FCC
:100140003F4F30936E0020936D0020916D003091F1
:100150006E00233F314069F591E090936C008A3046
:1001600079F18C3021F0863021F583E0089584E028
:1001700008958823F1F081508093700010926E00F2
:1001800010926D00811115C080916C00813019F4BE
:1001900010926C000EC080916F008A3099F08C3004
:1001A00021F0863021F480E0089581E008951092D6
:1001B0006F007FDB909372008093710086E008955A
:1001C00085E0089582E0089574DB209174003091F9
:1001D0007500821B930B0397A0F16BDB9093750066
:1001E00080937400809173008F5F80937300959A61
:1001F00080917300853108F0959880917300893261
:1002000008F0959A809173008D3308F0959880914D
:100210007300813508F0959A80917300853608F057
:10022000959880917300893708F0959A80917300B2
:100230008D3808F09598809173008F3F11F41092DB
:1002400073000895959880E00895F89494988C9A96
:100250008FE797E00197F1F700C000008C98EFEE70
:10026000F0E03197F1F700C0000080B3EFE8F6E06E
:100270003197F1F700C0000078948071089599E0FB
:1002800080E09150F1F0F89494988C9A25E02A95AA
:10029000F1F700008C982AE42A95F1F700C040B3EA
:1002A00020EF2A95F1F7789444FB222720F930E0DB
:1002B000A9015695542F4427579547958695842B29
:1002C000E0CF089599E09150B9F0F89494988C9A01
:1002D00025E02A95F1F7000080FD8C98EFEEF0E024
:1002E0003197F1F700C000008C9878948695F5E07E
:1002F000FA95F1F70000E7CF0895A7DF811106C056
:100300008CECE0DF84E4DEDF81E0089580E0089596
:100310000F931F93CF93DF938C0197DF8CECD2DF89
:100320008EEBD0DFACDFD82FAADFC82F8EDFC7FF60
:1003300004C0F8011182108220C04D2F4F7021E7B8
:1003400032E0429FC001439F900D11248C509E4F7C
:1003500068EE73E054DBD295DF70F0E1CF9FC0010F
:1003600011248D2B4AE0489F9001499F300D1124A4
:10037000620F731FF80171836083DF91CF911F912A
:100380000F9108950F931F93CF93DF9383E190E034
:10039000ABDB8433924109F443C088B3807F88BBD0
:1003A00082B3807F82BBC0E0D0E067E0CE01A1DBFA
:1003B0006EE1CE0104969DDB60E0CE01089699DBEC
:1003C000219680E0C430D80781F760E08CE090E0AF
:1003D00090DB60E08DE090E08CDB60E08EE090E010
:1003E00088DB61E08FE090E084DB61E080E190E019
:1003F00080DB61E081E190E07CDB60E082E190E025
:1004000078DB60E070E085E190E080DB60E070E048
:1004100082E390E07BDB64E372E183E190E076DBF2
:1004200000E010E0C3E9D0E0C80156DB8883C801D2
:10043000049652DB8983C80108964EDB8A830F5FDE
:100440001F4F239620E0CF39D20771F78CE090E060
:1004500043DB8093BD008DE090E03EDB8093BC00E9
:100460008EE090E039DB8093BE008FE090E034DBDB
:100470008093B30080E190E02FDB8093B40081E1B2
:1004800090E02ADB8093B50082E190E025DB809349
:10049000BF0085E190E028DB9093AD008093AC0035
:1004A000DF91CF911F910F910895AF92BF92DF928C
:1004B000EF92FF920F931F93CF93DF9388B3807FC8
:1004C00088BB82B3807F82BBC3E9D0E000E010E04C
:1004D0008FE9A82E80E0B82EF880C801FDDAF81662
:1004E00019F06F2DC80105DBD980780184E0E80E92
:1004F000F11CC701F1DAD81619F06D2DC701F9DA30
:10050000DA80780188E0E80EF11CC701E5DAD81638
:1005100019F06D2DC701EDDA23960F5F1F4FAC1652
:10052000BD06D1F6C091BD008CE090E0D5DAC817C9
:1005300021F06C2F8CE090E0DCDAC091BC008DE003
:1005400090E0CADAC81721F06C2F8DE090E0D1DA84
:10055000C091BE008EE090E0BFDAC81721F06C2F8A
:100560008EE090E0C6DAC091B3008FE090E0B4DA9C
:10057000C81721F06C2F8FE090E0BBDAC091B40077
:1005800080E190E0A9DAC81721F06C2F80E190E0BB
:10059000B0DAC091B50081E190E09EDAC81721F091
:1005A0006C2F81E190E0A5DAC091BF0082E190E07C
:1005B00093DAC81769F06C2F82E190E0DF91CF9158
:1005C0001F910F91FF90EF90DF90BF90AF9091CA75
:1005D000DF91CF911F910F91FF90EF90DF90BF902F
:1005E000AF9008951F920F920FB60F9211242F9380
:1005F0008F939F93AF93BF93EF93FF9388B3807FC5
:1006000088BB8FE599E00197F1F700C0000082B345
:10061000807F82BB9698809178008F5F809378006E
:10062000823321F481E08093770006C0843621F480
:1006300010927700109278008091760090E0FC0193
:10064000EE0FFF1FDF01A80FB91FA156BF4F119674
:100650002C91222321F020917700222399F18E0FF3
:100660009F1FFC01E156FF4F90819A3059F182B3F0
:10067000892B82BB28B381E090E00090760002C015
:10068000880F991F0A94E2F7822B88BB9091AF00E4
:1006900080917600992329F09091AB00981312C0B5
:1006A00010C090E0FC01EE0FFF1F8E0F9F1FFC019A
:1006B000ED56FF4F8281882329F08091C00081117F
:1006C00001C0969A809176008F5F843019F08093F4
:1006D000760002C010927600FF91EF91BF91AF912A
:1006E0009F918F912F910F900FBE0F901F90189593
:1006F00085B58F6085BD82E383BD89B7806889BF7A
:100700000895CF92DF92EF92FF920F931F93CF93B2
:10071000DF93FB012CE330E0B9015DD96B01AC0143
:100720006FEF649FC001659F900D1124B90153D9EB
:100730007B0120917B00022F10E0CFEFD0E0AE01D3
:10074000461B570B409FC001419F900D509F900D3D
:100750001124BE0154D9462FE09EC001E19E900DA8
:10076000F09E900D1124BE014AD9C62F362FC60126
:1007700066E070E030D98330910599F040F4813023
:10078000910561F00297A9F48C2F322F0CC08430B0
:10079000910559F0059769F4842F09C0322F242F51
:1007A00008C0822F342F20E005C0822F2C2F30E08C
:1007B00001C080E0308321838283DF91CF911F913C
:1007C0000F91FF90EF90DF90CF900895EF92FF92FE
:1007D0000F931F93CF93DF93CDB7DEB72C970FB650
:1007E000F894DEBF0FBECDBF8091B300823069F0B8
:1007F000833081F1813009F070C0F8941CE080E012
:10080000B9D81150E1F7789468C0BE016F5F7F4F8F
:100810008091AC009091AD0074DFF8941CE0898168
:10082000A9D88A81A7D88B81A5D81150C1F778940F
:100830008091AC009091AD0001969093AD008093B3
:10084000AC008836914009F048C01092AD0010927B
:10085000AC0043C0BE016F5F7F4F8091AC009091B0
:10086000AD004FDF8091AC009091AD00BE016C5F98
:100870007F4F865A9F4F45DF8091AC009091AD002D
:10088000BE01695F7F4F8C549F4F3BDF8091AC006E
:100890009091AD00BE01665F7F4F825F9E4F31DF5A
:1008A000F8948E010F5F1F4F7E018DE0E80EF11C62
:1008B000F80181918F015ED80E151F05C9F7789454
:1008C0008091AC009091AD0001969093AD00809323
:1008D000AC008836914009F4B8CF2C960FB6F89446
:1008E000DEBF0FBECDBFDF91CF911F910F91FF9063
:1008F000EF900895DED72091790030917A00821B25
:10090000930B20917C0030917D008217930730F08B
:10091000D0D790937A008093790058CF0895809132
:10092000B400833091F038F4813061F08230B1F45A
:1009300083E590E00FC0843059F0853079F485E08C
:1009400090E008C08CE190E005C087EA90E002C02A
:1009500083E896E090937D0080937C008091B500C1
:10096000823059F020F4813069F48FEF09C0833070
:1009700031F0843039F488E103C080E801C083E3BA
:1009800080937B008091B300813019F41092B20003
:1009900003C081E08093B20019CF1092B200609141
:1009A000AC007091AD0085E190E0B0C881E080932B
:1009B000B20060E070E085E190E0A8C820E08E3AE7
:1009C000920771F0009761F090936100809360004E
:1009D0000696FC0185919491009711F0FC01099411
:1009E000089584B78093C90014BE0FB6F894A895F3
:1009F00081B5886181BD11BC0FBE089580E033D7F9
:100A00008093B60081E02FD78093B80082E02BD787
:100A1000982F92959F708F702AE0929F800D1124DD
:100A20008093B7008091B800982F92959F708F7037
:100A30004AE0949F800D11248093B8008091830038
:100A4000882339F08091B600893519F4FBDB809357
:100A500083008091B600882329F09091C100911104
:100A60001BC049C02091B7003091B800909183001D
:100A7000E3E9F0E04281413039F44081421304C09F
:100A80004181431301C091E0339640E0EF39F40710
:100A900089F790938300E1CF853269F51092C10008
:100AA0008091C5009091C600A091C700B091C80088
:100AB00080589649A849B1098093C5009093C60013
:100AC000A093C700B093C8008091BF00181614F41B
:100AD00086E203C0882319F084E28093B600609117
:100AE000B600862F82958F706F709AE0899F600D97
:100AF000112480E09FD69091BC008091B60099238C
:100B000029F19BEF980F9B3020F09BEC980F9B30C6
:100B1000E8F481E08093C00084E0A5D68093BA0019
:100B200085E0A1D68093B900A89A9091BA00292FA8
:100B300022952F7020939F009F709093A200982F72
:100B400092959F709093A5008F707EC09091BD008C
:100B5000992309F47CC097EE980F9B3018F08954C4
:100B60008B30B8F4CADB80938400A3D690938A00BC
:100B70008093890080918400811106C087EE93E004
:100B800090938800809387008091BD00882309F4AA
:100B90005EC08091B60090EE980F953020F08055A1
:100BA000853008F054C04091870050918800209112
:100BB0007E0030917F00CA01821B930BBC0197FF1E
:100BC00004C066277727681B790B653171052CF007
:100BD00050937F0040937E0010C043E0220F331FEC
:100BE0004A95E1F7820F931F53E0969587955A95A2
:100BF000E1F790937F0080937E0080917E0090913A
:100C00007F00883E934030F087EE93E090937F0022
:100C100080937E0081E08093C000A89AE0917E00DE
:100C2000F0917F00CF0164E670E0D5D660939F001D
:100C30002AE030E0B901CFD66093A200CF01B9011C
:100C4000CAD68093A5008AE08093A80008951092E8
:100C5000C0008091BE00882339F08091B7008C30AD
:100C600018F08C508093B7008091B600811106C0B7
:100C70008091B80065E096D6992321F08091860096
:100C80008823D9F01092860014D690938C0080931C
:100C90008B0081E0809385008091B7002AE0622F6D
:100CA00081D68093A1009093A4008091B8007AD659
:100CB0008093A7009093AA0010C08091B7002AE00B
:100CC000622F70D680939F009093A2008091B8000D
:100CD00069D68093A5009093A80095B381E08927F9
:100CE00085BB0895CF93DF93CDB7DEB72C970FB6B2
:100CF000F894DEBF0FBECDBF74DE4BD687B38F60D6
:100D000087BBA09A81B38F6681BB85B38E6085BB9C
:100D1000C59AF8D5EDDCFFD5B2D578948091C9009D
:100D200083FD27C01C861B8682E08093B30085E08C
:100D30008093B40081E08093B500F1DD10E0B9D577
:100D400088309740F8F41093A8001093A5001093F2
:100D5000A20010939F00CEDDACD52B853C85821B75
:100D6000930B843B910558F3A4D59C878B871F5F19
:100D7000E6CF82E390E0B8D6BC016F5F7F4F82E39D
:100D800090E0C4D6FFDA95D589309740E0F38091A2
:100D9000AC009091AD00892B21F0C1DD1092B20022
:100DA00001C0BDDD81E08093860086EA90E006DE2A
:100DB0009FE088E10FB6F894A89581BD0FBE91BD64
:100DC00001E0FF24FA94A895B59B25C0809182008C
:100DD000811121C0009382002091C3003091C40092
:100DE0008091C5009091C600A091C700B091C80045
:100DF000820F931FA11DB11D8093C5009093C60063
:100E0000A093C700B093C80080389649A849B1059F
:100E100010F00093C100B5990FC080918200882323
:100E200059F0109282008091B000811105C080912C
:100E30008500811101C0E2DD8091C200882369F044
:100E400038D520918D0030918E00821B930B89380C
:100E5000934118F086EA90E0B1DD8091B2008111F3
:100E600049DD809183008111AFD98091850088236D
:100E700009F44BC08AE0E2E6F0E0DE011196019051
:100E80000D928A95E1F78091810090E0FC01EE0FD0
:100E9000FF1F8E0F9F1FFC01E156FF4F80918000C6
:100EA000A1E0B0E0AC0FBD1FA80FB11D8C918083F5
:100EB00000D520918B0030918C00821B930BC3973F
:100EC00020F1F7D490938C0080938B008091800068
:100ED0008F5F809380008A30C1F480918100E82F79
:100EE000F0E09F01220F331FE20FF31FE156FF4F87
:100EF000928190838F5F8093810010928000843074
:100F000021F4109281001092850080918400882342
:100F100079F0CFD42091890030918A00821B930B05
:100F20008F3E924028F01092840087E890E0F0D93C
:100F3000DED8182F80918300882339F0163009F409
:100F400042CF80D9809383003ECF163009F43BCF47
:100F50000093C200AED490938E0080938D00123027
:100F600009F44FC028F4112359F0113099F12BCF17
:100F7000143009F43BC018F1153009F46BC023CFCD
:100F80000093B1008091B000882341F0E0916000AF
:100F9000F091610032968591949110DD8091B000BE
:100FA000811111CF8091B300813009F40CCF809171
:100FB000B200813011F4F1DC06CFF8DC04CF1092DE
:100FC000B1008091B0008111FECE1092850086E3C1
:100FD00090E04AC0F092B1008091B000882309F4FB
:100FE000F2CEE0916000F091610031C01092B1004A
:100FF0008091B0008111E7CE1092850086E590E0E7
:1010000033C01092B1008091B000882309F4DBCE88
:10101000823079F48091AB0090E0FC01EE0FFF1F6D
:101020008E0F9F1FFC01ED56FF4F828181110AC078
:1010300006C0813039F48091B300813019F486EA1A
:1010400090E012C0E0916000F091610034968591CB
:1010500094910AC01092B1008091B0008111B3CE7A
:10106000109285008EE990E0A9DCADCEFC01808174
:10107000861714F44083089548170CF4608308958C
:101080008091AE00882381F062E187E0D3D360E0F5
:1010900080E0D0D31092AE001092C5001092C6002E
:1010A0001092C7001092C8001092A9001092A600DA
:1010B0001092A3001092A0001092C2001092AF00F4
:1010C0001092C000A091BF000A2E000CBB0B20E8BC
:1010D00036E948E950E0C2D420E831E541E050E08B
:1010E000A1D4C90137FF04C088279927821B930B1D
:1010F0009093C4008093C3001092B000D6D97ECCE8
:1011000083E08093B00081E08093C0009091B100B3
:10111000992329F09091BE0089278093BE0082E038
:10112000A2D38093B700A89881E08093A300809316
:10113000A0009091BE00911105C082E080939F00B5
:1011400084E003C080939F0082E08093A2008AE045
:101150008093A8008093A500089582E084D38093B3
:10116000B70081E080D38093B8008091B700982FBA
:1011700092959F708F702AE0929F800D112480932A
:10118000B7008091B1008823B1F081E08093AE0078
:1011900060E880E04FD39091B7008091B100890F53
:1011A0008093B70047E160E087EB90E05FDF6091FC
:1011B000B70082E03FD3A89A8091BE00811106C09B
:1011C00081E08093A3008093A00012C08091B700BB
:1011D0008C3048F08C508093B7001092A00081E0D2
:1011E0008093A30005C081E08093A0001092A3002B
:1011F0008091B7006AE0D6D380939F009093A200BD
:101200008091B800982F92959F709093A5008F7051
:101210008093A800089581E026D3982F92959F701F
:101220008F702AE0929F800D11248093B8008091E6
:10123000B1008823B1F081E08093AE0060E880E0E7
:10124000F9D29091B8008091B100890F8093B800D5
:101250004BE360E088EB90E009DF6091B80081E04B
:10126000E9D28091BE00882339F08091B7008C309C
:1012700018F08C508093B7001092A3001092A00039
:1012800081E08093A9008093A6008091B7002AE0B6
:10129000622F88D380939F009093A2008091B80022
:1012A00081D38093A5009093A80008958091AE000B
:1012B000882329F060E080E0BDD21092AE0084E087
:1012C000D2D28093BA0085E0CED28093B9008091CB
:1012D000BA00982F92959F708F702AE0929F800D90
:1012E00011248093BA009091B100992361F0890F85
:1012F0008093BA004FE161E08AEB90E0B7DE609145
:10130000BA0084E097D281E08093A3008093A0008C
:101310001092A9001092A6008091BA006AE042D310
:1013200080939F009093A2008091B900982F92958E
:101330009F709093A5008F708093A800089585E01A
:1013400092D2982F92959F708F702AE0929F800D75
:1013500011248093B9009091B100992361F0890F15
:101360008093B9004CE061E089EB90E07FDE609112
:10137000B90085E05FD21092A3001092A00081E036
:101380008093A9008093A6008091BA002AE0622F82
:1013900009D380939F009093A2008091B90002D35B
:1013A0008093A5009093A800089586E05CD2982FC2
:1013B00092959F708F702AE0929F800D11248093E8
:1013C000BB009091B100992361F0890F8093BB001D
:1013D00043E660E08BEB90E049DE6091BB0086E085
:1013E00029D2A89882E080939F001092A200809159
:1013F000BB006AE0D7D28093A5009093A80008951F
:101400008091B100882331F09091BC0081E0892760
:101410008093BC0081E080939F008AE08093A200CB
:101420008093A5008091BC008093A80008958091CE
:10143000B100882331F09091BD0081E0892780932D
:10144000BD0082E080939F008AE08093A200809399
:10145000A5008091BD008093A80008958091B100FF
:10146000882351F09091BF00890F8093BF0043E61D
:101470006DE98FEB90E0FADD2091BF0027FF02C0FD
:10148000A89A01C0A89883E080939F006AE06093C7
:10149000A200822F93D2082E000C990B97FF03C055
:1014A0009195819591098093A500822F6AE086D25B
:1014B000892F990F990B97FF03C0919581959109F9
:1014C0008093A8000895A89A83E08093B00081E0FB
:1014D0008093AF008091B100882351F09091AB00D0
:1014E000890F8093AB0043E060E08BEA90E0BEDDC3
:1014F0008091BE002091AB008823B9F0822F90E04C
:10150000FC01EE0FFF1F8E0F9F1FFC01ED56FF4FDA
:1015100080818C3050F090E00C976AE070E06FD2E0
:1015200060939F008093A20011C0822F90E0FC0185
:10153000EE0FFF1F8E0F9F1FFC01ED56FF4F8081A6
:101540006AE030D280939F009093A200822F90E0B7
:10155000FC01EE0FFF1F8E0F9F1FFC01ED56FF4F8A
:1015600081816AE01FD28093A5009093A80008951E
:10157000A89882E08093B0001092AF0091E0909321
:10158000C0002091B1008091AB00222361F0E82FD0
:10159000F0E09F01220F331FE20FF31FED56FF4FC4
:1015A0002281922792839AE090939F009093A200C9
:1015B0009093A50090E0FC01EE0FFF1F8E0F9F1F80
:1015C000FC01ED56FF4F82818093A8000895A89AF0
:1015D00083E08093B0002091B100222389F08091B4
:1015E000AB0090E0AC01440F551F840F951F8D5642
:1015F0009F4FFC013081230F208347E160E036DDFF
:101600008091BE002091AB00811111C081E08093D8
:10161000A3008093A000822F90E0FC01EE0FFF1F3B
:101620008E0F9F1FFC01ED56FF4F808121C0822F3E
:1016300090E0FC01EE0FFF1F8E0F9F1FFC01ED5687
:10164000FF4F80818C3078F01092A00091E0909351
:10165000A30090E00C976AE070E0D1D160939F0006
:101660008093A2000BC091E09093A0001092A30081
:101670006AE098D180939F009093A200822F90E01F
:10168000FC01EE0FFF1F8E0F9F1FFC01ED56FF4F59
:1016900081816AE087D18093A5009093A800089586
:1016A0002091B100222399F08091AB0090E0AC0131
:1016B000440F551F840F951FFC01ED56FF4F3181DC
:1016C000230F21834BE360E08C569F4FCFDC1092B9
:1016D000A3001092A00081E08093A9008093A6004F
:1016E0008091BE002091AB008823B9F0822F90E05A
:1016F000FC01EE0FFF1F8E0F9F1FFC01ED56FF4FE9
:1017000080818C3050F090E00C976AE070E077D1E7
:1017100060939F008093A20011C0822F90E0FC0193
:10172000EE0FFF1F8E0F9F1FFC01ED56FF4F8081B4
:101730006AE038D180939F009093A200822F90E0BE
:10174000FC01EE0FFF1F8E0F9F1FFC01ED56FF4F98
:1017500081816AE027D18093A5009093A800089525
:1017600081E08093B0008093C000A8988091B10080
:101770008823B1F08091B300813029F08091B200CC
:10178000811101C013D99091B3008091B100890FEC
:101790008093B30043E061E083EB90E067DCBFD867
:1017A00081E08093A90080939F008AE08093A2004B
:1017B0008093A5008091B3008093A800089583E0F2
:1017C0008093B0008091B100882359F09091B400CB
:1017D000890F8093B40044E061E084EB90E046DC44
:1017E0009ED882E080939F008AE08093A20080933D
:1017F000A5008091B4008093A80008958091B10065
:10180000882359F09091B500890F8093B50044E08A
:1018100061E085EB90E02ADC82D883E080939F0032
:101820008AE08093A2008093A5008091B500809308
:10183000A8000895CF93DF93D82FC62F70D080EDE6
:1018400074D08D2F72D0CF3F59F08C2F6AE0AAD080
:1018500020E1829F900D1124892FDF91CF9165C0E7
:10186000DF91CF910895CF936FEFE4DF58D081EDF2
:101870005CD065D0C82F60D08C2FCF91089562E1E5
:1018800087E0D8DF80E0EFDF87FF12C06CE082E006
:10189000D1DF6EE181E0CEDF60E080E0CBDF6CE0A5
:1018A00085E0C8DF6FE184E0C5DF66E186E0C2CF96
:1018B00008958FB7F8942091910030919200309361
:1018C000900020938F008FBF80918F0090919000A7
:1018D00008951F920F920FB60F9211248F939F932A
:1018E0008091910090919200019690939200809344
:1018F000910085E082BF9F918F910F900FBE0F9056
:101900001F90189583B7836083BF85E082BF89B736
:10191000816089BF089588E480B911B8089584EA88
:1019200086BF06B607FEFDCF089583B984E886BF5B
:1019300006B607FEFDCF089584E986BF089584E8C2
:1019400086BF06B607FEFDCF83B10895979A0000C3
:1019500000000000000097980895979A000000008A
:101960000000000000000000000000000000000077
:1019700097980895CF93DF93D82FC8E0D7FF02C080
:10198000ECDF01C0E3DFDD0FC150C1F7DF91CF9184
:101990000895CF938F9ACCE080E0ECDFC150E1F75F
:1019A000CF910895991B79E004C0991F961708F00C
:1019B000961B881F7A95C9F78095089587FB082E96
:1019C000062687FD819567FD6195ECDF0EF4919504
:1019D00007FC81950895AA1BBB1B51E107C0AA1FF4
:1019E000BB1FA617B70710F0A61BB70B881F991FC0
:1019F0005A95A9F780959095BC01CD01089597FB64
:101A0000072E16F4009406D077FD08D0E4DF07FC1B
:101A100005D03EF4909581959F4F089570956195FE
:101A20007F4F0895052E97FB16F400940FD057FDB5
:101A300005D01AD007FC02D046F408C05095409556
:101A4000309521953F4F4F4F5F4F0895909580956A
:101A5000709561957F4F8F4F9F4F0895B7FF26C0B8
:101A600025D0821B930B0895A1E21A2EAA1BBB1B43
:101A7000FD010DC0AA1FBB1FEE1FFF1FA217B3075A
:101A8000E407F50720F0A21BB30BE40BF50B661F70
:101A9000771F881F991F1A9469F760957095809534
:101AA00090959B01AC01BD01CF01089509D0A59F80
:101AB000900DB49F900DA49F800D911D1124089549
:101AC000A29FB001B39FC001A39F01D0B29F700D30
:101AD000811D1124911D0895E199FECF9FBB8EBBFE
:101AE000E09A99278DB30895A8E1B0E042E050E074
:101AF00012C0262FE199FECF9FBB8EBB2DBB0FB628
:101B0000F894E29AE19A0FBE01960895F2DF272F2A
:101B1000F1CFDC01CB01FC01E199FECF06C0FFBB98
:101B2000EEBBE09A31960DB20D9241505040B8F79D
:061B30000895F894FFCFB8
:0C1B3600AE0003080904000507020601C8
:00000001FF
