:100000005EC078C077C0E0C475C074C073C072C0F1
:1000100071C06ECE6FC06EC06DC06CC06BC06AC068
:1000200069C068C067C026002600AE000C0E2E0016
:100030002E002600ED0D360036002E00BE0D3E00CF
:100040003E00AE005E0D460046003E00F50C4E0040
:100050004E004600C60C560056004E00710C5E0065
:100060005E00AE003C0C660066005E00250C6E0073
:100070006E0066000E0C760076006E00F70B7E00B8
:100080007E007600CC0B860086007E00960B8E00EC
:100090008E0086004D0B960096008E00020B9E008F
:1000A0009E009600A40AA600A6009E00770AB6004D
:1000B000B600B600370A000000000000000011245E
:1000C0001FBECFE5D4E0DEBFCDBF10E0A0E6B0E0BC
:1000D000EAE7FFE102C005900D92AC36B107D9F70F
:1000E00021E0ACE6B0E001C01D92AB30B207E1F711
:1000F000CFD741CF85CFCF93C82F20DE8EEE24DE21
:1001000084EF22DECC2311F084EF01C08EE21CDEEE
:10011000CF9121CECF92DF92EF92FF920F931F9358
:10012000CF93DF93C82F062FF42E152F07DE8EEE08
:100130000BDE8C2F09DE0FDE01DE8FEE05DECF2D0C
:10014000D12F10E0E12CF12C680181E0C81AD10810
:10015000E016F10669F0CE14DF0411F480E001C06E
:1001600081E0FCDD88838FEFE81AF80A2196F0CF52
:10017000DF91CF911F910F91FF90EF90DF90CF9083
:10018000EACDCF92DF92EF92FF920F931F93CF931E
:10019000DF93EC014DE650E062E086EFBBDF20919B
:1001A0006D0030E0322F222780916E00280F311D24
:1001B000A901330F660B770B809193009091940007
:1001C0009A01AB01281B390B41095109A0919500F7
:1001D000B091960087DE6B017C019FE0F594E79477
:1001E000D794C7949A95D1F760918D0070918E0045
:1001F000CB01770FAA0BBB0BBC01CD012BE0660F27
:10020000771F881F991F2A95D1F720918B00309175
:100210008C008901330F220B330BA90198012C0D9F
:100220003D1D4E1D5F1D42DEC20ED31EE41EF51E97
:10023000C0928700D0928800E0928900F0928A00F4
:1002400088E0C80ED11CE11CF11C34E0F594E79461
:10025000D794C7943A95D1F7D7FE05C01882198272
:100260001A821B8208C00D2C000CEE08FF08C88201
:10027000D982EA82FB82DF91CF911F910F91FF908B
:10028000EF90DF90CF9008954F925F926F927F92A0
:100290008F929F92AF92BF92CF92DF92EF92FF9296
:1002A000CF93DF9300D000D000D0CDB7DEB79E83D0
:1002B0008D834DE650E063E086EF2CDF8090870071
:1002C00090908800A0908900B0908A0020EA821A5D
:1002D0002FE0920AA108B108A5019401C501B4015B
:1002E00074DD9B01AC01FCE055954795379527954A
:1002F000FA95D1F729833A834B835C83E0919D0083
:10030000F0919E00A0919900B0919A00A5019401EE
:10031000F3DD6B017C01ADE0F594E794D794C794CD
:10032000AA95D1F7A0919100B091920029813A81CC
:100330004B815C81E1DDBB2797FDB095AB2F8C0D28
:100340009D1DAE1DBF1D0296A11DB11D22E0B595DC
:10035000A795979587952A95D1F79C01AD013058BF
:100360004F4F5F4FA0919700B0919800BBDD2B01DC
:100370003C013FE076946794579447943A95D1F7BF
:10038000C0906D00D12CE12CF12C7601DD24CC2421
:1003900080916F00C80ED11CE11CF11C80916E0091
:1003A000482F50E0942F8827092E000CAA0BBB0B76
:1003B000C80ED91EEA1EFB1E75E0F694E794D7948A
:1003C000C7947A95D1F7A0918F00B09190002981C0
:1003D0003A814B815C8190DD9B01AC01ABE055958E
:1003E000479537952795AA95D1F729833A834B836B
:1003F0005C83A0919B00B0919C00A50194017CDDE1
:10040000DC01CB012BE0B595A795979587952A95AB
:10041000D1F729813A814B815C81820F931FA41F00
:10042000B51FAF01FF0F660B770B32E0440F551F6E
:10043000661F771F3A95D1F7840F951FA61FB71F28
:10044000880F991FAA1FBB1FA7019601281B390BF4
:100450004A0B5B0BAAE6B8E145DD97FD10C0660FBD
:10046000771F881F991FA3019201FEDC2093830050
:1004700030938400409385005093860011C0A301FF
:100480009201F2DCDA01C901880F991FAA1FBB1F74
:100490008093830090938400A0938500B09386009E
:1004A000C0908300D0908400E0908500F09086009A
:1004B0009927F7FC9A958F2D7E2D6D2D9B01AC0110
:1004C00084DC9B01AC01AEEDBBE00CDD4C01BB2438
:1004D00097FCB094AB2CA3E4B3EEA70196010EDD1C
:1004E000BB2797FDB095AB2F880D991DAA1DBB1D8D
:1004F0008153914FAF4FBF4F44E0B595A795979566
:1005000087954A95D1F79C01AD012C0D3D1D4E1DDF
:100510005F1DAAE0B0E0E6DC25E335E040E050E016
:10052000C5DCED81FE81208331834283538326968F
:100530000FB6F894DEBF0FBECDBFDF91CF91FF9015
:10054000EF90DF90CF90BF90AF909F908F907F9073
:100550006F905F904F900895CF93DF93EB01909150
:100560006C00913099F038F0923021F510926C00C7
:10057000CB018ADE1FC080E0BEDD81E080936C008D
:10058000188219821A821B8285E015C0811105C06C
:1005900010926C00CB01F5DD0DC0CB01F2DD81E0E6
:1005A000AADD82E080936C00188219821A821B8275
:1005B0008AE101C080E0DF91CF9108954DE650E0DF
:1005C00066E18AEAA7DDEDE6F0E080819181982777
:1005D0008927982790939E0080939D008281938124
:1005E00098278927982790939C0080939B0084816B
:1005F000958198278927982790939A00809399004E
:1006000086819781982789279827909398008093CF
:100610009700808591859827892798279093960041
:1006200080939500828593859827892798279093B2
:10063000940080939300848595859827892798272F
:1006400090939200809391008685978598278927BB
:1006500098279093900080938F00828993899827A0
:100660008927982790938E0080938D00848995899F
:1006700098278927982790938C0080938B00089562
:1006800027DB2091A4003091A5008217930709F47D
:100690005EC093B39E708091A3009E3099F1893122
:1006A00018F48F5F8093A3008091A300893109F033
:1006B00049C083B38E708093A2002091A000309136
:1006C000A100243F314050F42091A0003091A100BE
:1006D0002F5F3F4F3093A1002093A0002091A000F6
:1006E0003091A100233F314069F591E090939F0044
:1006F0008A3079F18C3021F0863021F583E008953D
:1007000084E008958823F1F081508093A300109233
:10071000A1001092A000811115C080919F0081302E
:1007200019F410929F000EC08091A2008A3099F0B7
:100730008C3021F0863021F480E0089581E0089526
:100740001092A200C5DA9093A5008093A40086E0E1
:10075000089585E0089582E00895BADA2091A7000F
:100760003091A800821B930B0397A0F1B1DA90930C
:10077000A8008093A7008091A6008F5F8093A600B9
:10078000959A8091A600853108F095988091A600F1
:10079000893208F0959A8091A6008D3308F09598DB
:1007A0008091A600813508F0959A8091A600853643
:1007B00008F095988091A600893708F0959A809165
:1007C000A6008D3808F095988091A6008F3F11F40F
:1007D0001092A6000895959880E008950F931F93B6
:1007E000CF93DF9300E010E0C5EDD0E0C80196DBC9
:1007F0008883C801049692DB8983C80108968EDB42
:100800008A830F5F1F4F239680E0C13ED80771F7A0
:100810008CE090E083DB8093FE008DE090E07EDB57
:100820008093FD008EE090E079DB809300018FE003
:1008300090E074DB8093F40080E190E06FDB8093C4
:10084000F50081E190E06ADB8093F60082E190E0C0
:1008500065DB8093FF0083E190E060DB8093010122
:1008600084E190E063DB9093EF008093EE00DF91F2
:10087000CF911F910F910895AF92BF92DF92EF92A7
:10088000FF920F931F93CF93DF9388B3807F88BB32
:1008900082B3807F82BBC5EDD0E000E010E081EE46
:1008A000A82E80E0B82EF880C80138DBF81619F0C1
:1008B0006F2DC80140DBD980780184E0E80EF11C7F
:1008C000C7012CDBD81619F06D2DC70134DBDA8097
:1008D000780188E0E80EF11CC70120DBD81619F07A
:1008E0006D2DC70128DB23960F5F1F4FAC16BD0689
:1008F000D1F6C091FE008CE090E010DBC81721F02B
:100900006C2F8CE090E017DBC091FD008DE090E053
:1009100005DBC81721F06C2F8DE090E00CDBC09157
:1009200000018EE090E0FADAC81721F06C2F8EE01B
:1009300090E001DBC091F4008FE090E0EFDAC8179F
:1009400021F06C2F8FE090E0F6DAC091F50080E1A5
:1009500090E0E4DAC81721F06C2F80E190E0EBDA48
:10096000C091F60081E190E0D9DAC81721F06C2F30
:1009700081E190E0E0DAC091FF0082E190E0CEDA20
:10098000C81721F06C2F82E190E0D5DAC091010107
:1009900083E190E0C3DAC81769F06C2F83E190E03F
:1009A000DF91CF911F910F91FF90EF90DF90BF905B
:1009B000AF90C1CADF91CF911F910F91FF90EF903F
:1009C000DF90BF90AF9008951F920F920FB60F92D5
:1009D00011242F938F939F93AF93BF93EF93FF9324
:1009E00088B3807F88BB8FEC97E00197F1F700C058
:1009F000000082B3807F82BB96988091AB008F5FAE
:100A00008093AB00823321F481E08093AA0006C07A
:100A1000843621F41092AA001092AB008091A900B4
:100A200090E0FC01EE0FFF1FDF01A80FB91FAF51CF
:100A3000BF4F11962C91222321F02091AA0022234E
:100A400099F18E0F9F1FFC01EF51FF4F90819A305B
:100A500059F182B3892B82BB28B381E090E00090EA
:100A6000A90002C0880F991F0A94E2F7822B88BB65
:100A70009091F0008091A900992329F09091ED00C8
:100A8000981312C010C090E0FC01EE0FFF1F8E0FF4
:100A90009F1FFC01EB52FF4F8281882329F0809138
:100AA0000201811101C0969A8091A9008F5F843064
:100AB00019F08093A90002C01092A900FF91EF9154
:100AC000BF91AF919F918F912F910F900FBE0F907B
:100AD0001F90189585B58F6085BD82E383BD89B76A
:100AE000806889BF0895CF92DF92EF92FF920F93B3
:100AF0001F93CF93DF93FB012CE330E0B9018DD935
:100B00006B01AC016FEF649FC001659F900D1124D4
:100B1000B90183D97B012091BA00022F10E0CFEFF9
:100B2000D0E0AE01461B570B409FC001419F900D86
:100B3000509F900D1124BE0184D9462FE09EC00124
:100B4000E19E900DF09E900D1124BE017AD9C62F22
:100B5000362FC60166E070E060D98330910599F0C8
:100B600040F48130910561F00297A9F48C2F322F67
:100B70000CC08430910559F0059769F4842F09C0A1
:100B8000322F242F08C0822F342F20E005C0822F5F
:100B90002C2F30E001C080E0308321838283DF91FD
:100BA000CF911F910F91FF90EF90DF90CF9008951C
:100BB000CF93DF938091F400823069F0833089F124
:100BC000813009F05AC0F894CCE080E0E6D8C150FA
:100BD000E1F7789452C06CEA70E08091EE00909159
:100BE000EF0081DFF894CCE08091AC00D6D8809102
:100BF000AD00D3D88091AE00D0D8C150A9F7789479
:100C00008091EE009091EF0001969093EF00809319
:100C1000EE008836914089F51092EF001092EE00B8
:100C20002CC06CEA70E08091EE009091EF005BDFE9
:100C30008091EE009091EF006FEA70E0865A9F4F2E
:100C400052DF8091EE009091EF0062EB70E08C54E7
:100C50009F4F49DF8091EE009091EF0065EB70E0CF
:100C6000825F9E4F40DFF894CCEAD0E0899195D81E
:100C700080E0C83BD807D1F7C2CFDF91CF9108956C
:100C800027D82091B8003091B900821B930B209196
:100C9000BB003091BC008217930730F019D89093B5
:100CA000B9008093B80084CF08958091F500833017
:100CB00091F038F4813061F08230B1F483E590E056
:100CC0000FC0843059F0853079F485E090E008C099
:100CD0008CE190E005C087EA90E002C083E896E0EE
:100CE0009093BC008093BB008091F600823059F055
:100CF00020F4813069F48FEF09C0833031F0843003
:100D000039F488E103C080E801C083E38093BA002E
:100D10008091F400813019F41092F30003C081E057
:100D20008093F30045CF1092F3006091EE00709134
:100D3000EF0084E190E00CC981E08093F30060E073
:100D400070E084E190E004C920E0863B920771F0F6
:100D5000009761F090936100809360000696FC011B
:100D600085919491009711F0FC010994089584B73E
:100D700080930B0114BE0FB6F894A89581B58861D5
:100D800081BD11BC0FBE089580E07BD78093F70032
:100D900081E077D78093F90082E073D7982F9295FE
:100DA0009F708F702AE0929F800D11248093F8002D
:100DB0008091F900982F92959F708F704AE0949FD0
:100DC000800D11248093F9008091C500882339F0AB
:100DD0008091F700893519F4FEDC8093C50080917D
:100DE000F700882329F09091030191111BC049C09D
:100DF0002091F8003091F9009091C500E5EDF0E008
:100E00004281413039F44081421304C0418143138F
:100E100001C091E0339640E0E13EF40789F79093FA
:100E2000C500E1CF853269F5109203018091070179
:100E300090910801A0910901B0910A01805896494A
:100E4000A849B1098093070190930801A093090173
:100E5000B0930A0180910101181614F486E203C0D0
:100E6000882319F084E28093F7006091F700862FC1
:100E700082958F706F709AE0899F600D112480E0D9
:100E8000E7D69091FD008091F700992319F19BEF2F
:100E9000980F9B30F8F481E08093020184E0F1D652
:100EA0008093FB0085E0EDD68093FA00A89A90919C
:100EB000FB00292F22952F702093E1009F709093C3
:100EC000E400982F92959F709093E7008F70809325
:100ED000EA0008959091FE00992369F09BED980F28
:100EE0009B3048F481E08093C6001092C00061EC12
:100EF00070E080E00FC09091FF009923A1F09BEB80
:100F0000980F9B3080F481E08093C6008093C000EE
:100F100061EC70E021DB8093C900DAD69093CB00BE
:100F20008093CA00089510920201909100019923C4
:100F300039F09091F8009C3018F09C509093F80094
:100F4000811106C08091F90065E04ED7992321F008
:100F50008091C8008823D9F01092C800B9D6909328
:100F6000CD008093CC0081E08093C7008091F80091
:100F70002AE0622F39D78093E3009093E6008091B6
:100F8000F90032D78093E9009093EC0010C0809173
:100F9000F8002AE0622F28D78093E1009093E400C4
:100FA0008091F90021D78093E7009093EA0095B3F0
:100FB00081E0892785BB08958F929F92AF92BF925F
:100FC000CF92DF92EF92FF92CF93DF934B015C01C0
:100FD00081E080930201A89AC1EED0E0C501B4017E
:100FE00024E630E040E050E03FD728832AE0C22EDC
:100FF000D12CE12CF12CA701960136D72B83C5010A
:10100000B401A701960130D76E838AE08987DF910A
:10101000CF91FF90EF90DF90CF90BF90AF909F90D7
:101020008F9008958F929F92AF92BF92CF92DF924E
:10103000EF92FF92CF93DF934B015C0181E08093AD
:101040000201A898C1EED0E08AE08883C501B4010E
:1010500024E630E040E050E007D72B832AE0C22EA0
:10106000D12CE12CF12CA7019601FED62E83C501CF
:10107000B401A7019601F8D66987DF91CF91FF905F
:10108000EF90DF90CF90BF90AF909F908F9008959A
:10109000CF93DF93CDB7DEB72C970FB6F894DEBFB2
:1010A0000FBECDBF64DE88D687B38F6087BBA09AA2
:1010B00081B38F6681BB85B38E6085BBC59A31D6FF
:1010C00009DD38D6EBD57ADA789480910B0183FD6F
:1010D00027C01C861B8682E08093F40085E0809305
:1010E000F50081E08093F600E0DD10E0F1D5883076
:1010F0009740F8F41093EA001093E7001093E4008F
:101100001093E100BDDDE4D52B853C85821B930B5C
:10111000843B910558F3DCD59C878B871F5FE6CF16
:1011200082E390E003D7BC016F5F7F4F82E390E0E2
:101130000FD754DBCDD589309740E0F38091EE0096
:101140009091EF00892B21F0B0DD1092F30001C0E7
:10115000ACDD81E08093C8008EEA90E0F5DD9FE091
:1011600088E10FB6F894A89581BD0FBE91BD01E04E
:10117000FF24FA94A895B59B25C08091BF008111EA
:1011800021C00093BF00209105013091060180919C
:10119000070190910801A0910901B0910A01820F05
:1011A000931FA11DB11D8093070190930801A09387
:1011B0000901B0930A0180389649A849B10510F099
:1011C00000930301B5990FC08091BF00882359F0A7
:1011D0001092BF008091F100811105C08091C7007D
:1011E000811101C0D1DD80910401882369F070D59F
:1011F0002091CE003091CF00821B930B8938934110
:1012000018F08EEA90E0A0DD8091F300811138DDC6
:101210008091C5008111A1DA8091C700882309F46B
:101220004BC08AE0E2E6F0E0DE01119601900D92FB
:101230008A95E1F78091BE0090E0FC01EE0FFF1F60
:101240008E0F9F1FFC01EF51FF4F8091BD00A1E069
:10125000B0E0AC0FBD1FA80FB11D8C91808338D5B5
:101260002091CC003091CD00821B930BC39720F1CD
:101270002FD59093CD008093CC008091BD008F5FDF
:101280008093BD008A30C1F48091BE00E82FF0E069
:101290009F01220F331FE20FF31FEF51FF4F928187
:1012A00090838F5F8093BE001092BD00843021F444
:1012B0001092BE001092C7008091C600882379F179
:1012C00007D54091CA005091CB002091C900841BE2
:1012D000950B30E02817390710F561EC70E080912C
:1012E000C0003AD98093C9008091C900811112C011
:1012F0001092C6002091C0006091C1007091C200A0
:101300008091C3009091C400211102C055DE07C036
:1013100089DE05C0DDD49093CB008093CA00B0D99C
:10132000182F8091C500882339F0163009F422CF98
:1013300052DA8093C5001ECF163009F41BCF0093FC
:101340000401C6D49093CF008093CE00123009F4EC
:101350004FC028F4112359F0113099F10BCF1430FC
:1013600009F43BC018F1153009F46BC003CF0093AA
:10137000F2008091F100882341F0E0916000F0914B
:101380006100329685919491DFDC8091F1008111AA
:10139000F1CE8091F400813009F4ECCE8091F3001D
:1013A000813011F4C0DCE6CEC7DCE4CE1092F2004E
:1013B0008091F1008111DECE1092C70086E390E0AB
:1013C0004AC0F092F2008091F100882309F4D2CE55
:1013D000E0916000F091610031C01092F2008091C4
:1013E000F1008111C7CE1092C70086E590E033C0AE
:1013F0001092F2008091F100882309F4BBCE823074
:1014000079F48091ED0090E0FC01EE0FFF1F8E0F4C
:101410009F1FFC01EB52FF4F828181110AC006C061
:10142000813039F48091F400813019F48EEA90E033
:1014300012C0E0916000F091610034968591949122
:101440000AC01092F2008091F100811193CE1092A7
:10145000C70086EA90E078DC8DCEFC01808186179B
:1014600014F44083089548170CF460830895809124
:10147000D000882381F06AE087E0EAD360E080E072
:10148000E7D31092D0001092070110920801109239
:10149000090110920A011092EB001092E8001092DC
:1014A000E5001092E200109204011092F0001092F8
:1014B0000201A09101010A2E000CBB0B20E836E9C5
:1014C00048E950E019D520E831E541E050E0EED49C
:1014D000C90137FF04C088279927821B930B90937B
:1014E0000601809305011092F100C6D94DCC83E02E
:1014F0008093F10081E0809302019091F2009923A2
:1015000029F09091000189278093000182E0B9D3EE
:101510008093F800A89881E08093E5008093E20032
:1015200090910001911105C082E08093E10084E078
:1015300003C08093E10082E08093E4008AE080931E
:10154000EA008093E700089582E09BD38093F8003F
:1015500081E097D38093F9008091F800982F9295BD
:101560009F708F702AE0929F800D11248093F80065
:101570008091F2008823B1F081E08093D00060E890
:1015800080E066D39091F8008091F200890F8093FB
:10159000F80047E160E088EF90E05FDF6091F800DD
:1015A00082E056D3A89A80910001811106C081E0A3
:1015B0008093E5008093E20012C08091F8008C30A7
:1015C00048F08C508093F8001092E20081E0809304
:1015D000E50005C081E08093E2001092E500809173
:1015E000F8006AE001D48093E1009093E4008091D8
:1015F000F900982F92959F709093E7008F708093D9
:10160000EA00089581E03DD3982F92959F708F70E6
:101610002AE0929F800D11248093F9008091F200BE
:101620008823B1F081E08093D00060E880E010D39F
:101630009091F9008091F200890F8093F9004BE3BB
:1016400060E089EF90E009DF6091F90081E000D36C
:1016500080910001882339F08091F8008C3018F0D7
:101660008C508093F8001092E5001092E20081E027
:101670008093EB008093E8008091F8002AE0622FCD
:10168000B3D38093E1009093E4008091F900ACD350
:101690008093E7009093EA0008958091D00088231A
:1016A00029F060E080E0D4D21092D00084E0E9D24A
:1016B0008093FB0085E0E5D28093FA008091FB00E7
:1016C000982F92959F708F702AE0929F800D112421
:1016D0008093FB009091F200992361F0890F809331
:1016E000FB004FE161E08BEF90E0B7DE6091FB0023
:1016F00084E0AED281E08093E5008093E200109216
:10170000EB001092E8008091FB006AE06DD38093BB
:10171000E1009093E4008091FA00982F92959F70D9
:101720009093E7008F708093EA00089585E0A9D236
:10173000982F92959F708F702AE0929F800D1124B0
:101740008093FA009091F200992361F0890F8093C1
:10175000FA004CE061E08AEF90E07FDE6091FA00F1
:1017600085E076D21092E5001092E20081E080934D
:10177000EB008093E8008091FB002AE0622F34D3D5
:101780008093E1009093E4008091FA002DD3809340
:10179000E7009093EA00089586E073D2982F92951F
:1017A0009F708F702AE0929F800D11248093FC001F
:1017B0009091F200992361F0890F8093FC0043E639
:1017C00060E08CEF90E049DE6091FC0086E040D262
:1017D000A89882E08093E1001092E4008091FC00E0
:1017E0006AE002D38093E7009093EA000895809125
:1017F000F200882331F09091FD0081E089278093E9
:10180000FD0081E08093E1008AE08093E400809312
:10181000E7008091FD008093EA0008958091F20036
:10182000882331F09091FE0081E089278093FE00AB
:1018300082E08093E1008AE08093E4008093E700F7
:101840008091FE008093EA0008958091F200882341
:1018500031F09091FF0081E089278093FF0083E0C1
:101860008093E1008AE08093E4008093E700809118
:10187000FF008093EA0008958091F200882351F0E0
:1018800090910101890F8093010143E66DE981E0A8
:1018900091E0E3DD2091010127FF02C0A89A01C079
:1018A000A89884E08093E1006AE06093E400822FCE
:1018B000A7D2082E000C990B97FF03C09195819534
:1018C00091098093E700822F6AE09AD2892F990FBD
:1018D000990B97FF03C09195819591098093EA0038
:1018E0000895A89A83E08093F10081E08093F0004E
:1018F0008091F200882351F09091ED00890F809340
:10190000ED0043E060E08DEE90E0A7DD8091000106
:101910002091ED008823B9F0822F90E0FC01EE0FBA
:10192000FF1F8E0F9F1FFC01EB52FF4F80818C30F9
:1019300050F090E00C976AE070E083D26093E10091
:101940008093E40011C0822F90E0FC01EE0FFF1F96
:101950008E0F9F1FFC01EB52FF4F80816AE044D243
:101960008093E1009093E400822F90E0FC01EE0F61
:10197000FF1F8E0F9F1FFC01EB52FF4F81816AE01A
:1019800033D28093E7009093EA000895A89882E00C
:101990008093F1001092F00091E090930201209169
:1019A000F2008091ED00222361F0E82FF0E09F012A
:1019B000220F331FE20FF31FEB52FF4F22819227BA
:1019C00092839AE09093E1009093E4009093E70073
:1019D00090E0FC01EE0FFF1F8E0F9F1FFC01EB52EA
:1019E000FF4F82818093EA000895A89A83E0809354
:1019F000F1002091F200222389F08091ED0090E027
:101A0000AC01440F551F840F951F8B529F4FFC0153
:101A10003081230F208347E160E01FDD80910001CA
:101A20002091ED00811111C081E08093E500809349
:101A3000E200822F90E0FC01EE0FFF1F8E0F9F1F30
:101A4000FC01EB52FF4F808121C0822F90E0FC010E
:101A5000EE0FFF1F8E0F9F1FFC01EB52FF4F808187
:101A60008C3078F01092E20091E09093E50090E0E5
:101A70000C976AE070E0E5D16093E1008093E400A8
:101A80000BC091E09093E2001092E5006AE0ACD1C7
:101A90008093E1009093E400822F90E0FC01EE0F30
:101AA000FF1F8E0F9F1FFC01EB52FF4F81816AE0E9
:101AB0009BD18093E7009093EA0008952091F20073
:101AC000222399F08091ED0090E0AC01440F551F66
:101AD000840F951FFC01EB52FF4F3181230F2183AF
:101AE0004BE360E08A529F4FB8DC1092E500109201
:101AF000E20081E08093EB008093E8008091000198
:101B00002091ED008823B9F0822F90E0FC01EE0FC8
:101B1000FF1F8E0F9F1FFC01EB52FF4F80818C3007
:101B200050F090E00C976AE070E08BD16093E10098
:101B30008093E40011C0822F90E0FC01EE0FFF1FA4
:101B40008E0F9F1FFC01EB52FF4F80816AE04CD14A
:101B50008093E1009093E400822F90E0FC01EE0F6F
:101B6000FF1F8E0F9F1FFC01EB52FF4F81816AE028
:101B70003BD18093E7009093EA00089581E0809341
:101B8000F10080930201A8988091F2008823B1F0BF
:101B90008091F400813029F08091F300811101C01F
:101BA000CBD89091F4008091F200890F8093F400DB
:101BB00043E061E084EF90E050DC77D881E08093EF
:101BC000EB008093E1008AE08093E4008093E700DB
:101BD0008091F4008093EA00089583E08093F100FF
:101BE0008091F200882359F09091F500890F80933D
:101BF000F50044E061E085EF90E02FDC56D882E00C
:101C00008093E1008AE08093E4008093E700809174
:101C1000F5008093EA0008958091F200882359F03E
:101C20009091F600890F8093F60044E061E086EF22
:101C300090E013DC3AD883E08093E1008AE080935F
:101C4000E4008093E7008091F6008093EA00089515
:101C5000CF93DF93D82FC62F71D080ED75D08D2F05
:101C600073D0CF3F59F08C2F6AE0BED020E1829F25
:101C7000900D1124892FDF91CF9166C0DF91CF9114
:101C80000895CF936FEFE4DF59D081ED5DD080E010
:101C900065D0C82F60D08C2FCF9108956AE087E07F
:101CA000D7DF80E0EEDF87FF12C06CE082E0D0DF9C
:101CB0006EE181E0CDDF60E080E0CADF6CE085E0CE
:101CC000C7DF6FE184E0C4DF66E186E0C1CF08953D
:101CD0008FB7F8942091D3003091D4003093D20084
:101CE0002093D1008FBF8091D1009091D2000895B0
:101CF0001F920F920FB60F9211248F939F93809192
:101D0000D3009091D40001969093D4008093D30097
:101D100085E082BF9F918F910F900FBE0F901F9013
:101D2000189583B7836083BF85E082BF89B78160E0
:101D300089BF089588E480B911B8089584EA86BF00
:101D400006B607FEFDCF089583B984E886BF06B6C0
:101D500007FEFDCF089584E986BF0895882311F01A
:101D600084EC01C084E886BF06B607FEFDCF83B1D0
:101D70000895979A000000000000000097980895C9
:101D8000979A000000000000000000000000000022
:101D900000000000000097980895CF93DF93D82F9C
:101DA000C8E0D7FF02C0ECDF01C0E3DFDD0FC150A8
:101DB000C1F7DF91CF910895CF938F9ACCE080E067
:101DC000ECDFC150E1F7CF910895DB018F939F9332
:101DD00089D0BF91AF91A29F800D911DA39F900DBF
:101DE000B29F900D11240895991B79E004C0991FAA
:101DF000961708F0961B881F7A95C9F78095089565
:101E000087FB082E062687FD819567FD6195ECDF2F
:101E10000EF4919507FC81950895AA1BBB1B51E117
:101E200007C0AA1FBB1FA617B70710F0A61BB70B4A
:101E3000881F991F5A95A9F780959095BC01CD01EF
:101E4000089597FB072E16F4009406D077FD08D06E
:101E5000E4DF07FC05D03EF4909581959F4F0895EF
:101E6000709561957F4F0895A1E21A2EAA1BBB1BA6
:101E7000FD010DC0AA1FBB1FEE1FFF1FA217B30756
:101E8000E407F50720F0A21BB30BE40BF50B661F6C
:101E9000771F881F991F1A9469F760957095809530
:101EA00090959B01AC01BD01CF010895052E97FBD4
:101EB00016F400940FD057FD05D0D6DF07FC02D0F2
:101EC00046F408C050954095309521953F4F4F4FAF
:101ED0005F4F089590958095709561957F4F8F4FD6
:101EE0009F4F08950FD0A59F900DB49F900DA49F74
:101EF000800D911D11240895B7FFF4CFF3DF821BED
:101F0000930B0895A29FB001B39FC001A39F01D07E
:101F1000B29F700D811D1124911D0895E199FECF8E
:101F20009FBB8EBBE09A99278DB30895A8E1B0E0DE
:101F300042E050E012C0262FE199FECF9FBB8EBB3E
:101F40002DBB0FB6F894E29AE19A0FBE0196089560
:101F5000F2DF272FF1CFDC01CB01FC01E199FECFAD
:101F600006C0FFBBEEBBE09A31960DB20D92415018
:0A1F70005040B8F70895F894FFCF31
:0C1F7A00B6000308090400050702060178
:00000001FF
